{
  "_format": "hh-sol-artifact-1",
  "contractName": "UUPSProxy",
  "sourceName": "custom-supertokens/contracts/base/UUPSProxy.sol",
  "abi": [
    {
      "inputs": [],
      "name": "Initialized",
      "type": "error"
    },
    {
      "inputs": [],
      "name": "ZeroAddress",
      "type": "error"
    },
    {
      "stateMutability": "payable",
      "type": "fallback"
    },
    {
      "inputs": [
        {
          "internalType": "address",
          "name": "initialAddress",
          "type": "address"
        }
      ],
      "name": "initializeProxy",
      "outputs": [],
      "stateMutability": "nonpayable",
      "type": "function"
    },
    {
      "stateMutability": "payable",
      "type": "receive"
    }
  ],
  "bytecode": "0x608060405234801561001057600080fd5b50610286806100206000396000f3fe6080604052600436106100225760003560e01c80634a0687ef1461003b57610031565b366100315761002f610064565b005b610039610064565b005b34801561004757600080fd5b50610062600480360381019061005d91906101de565b61007e565b005b61006c610178565b61007c61007761017a565b6101a3565b565b600073ffffffffffffffffffffffffffffffffffffffff168173ffffffffffffffffffffffffffffffffffffffff1614156100e5576040517fd92e233d00000000000000000000000000000000000000000000000000000000815260040160405180910390fd5b600073ffffffffffffffffffffffffffffffffffffffff1661010561017a565b73ffffffffffffffffffffffffffffffffffffffff1614610152576040517f5daa87a000000000000000000000000000000000000000000000000000000000815260040160405180910390fd5b807f360894a13ba1a3210667c828492db98dca3e2076cc3735a920a3ca505d382bbc5550565b565b60007f360894a13ba1a3210667c828492db98dca3e2076cc3735a920a3ca505d382bbc54905090565b3660008037600080366000845af43d6000803e80600081146101c4573d6000f35b3d6000fd5b6000813590506101d881610239565b92915050565b6000602082840312156101f057600080fd5b60006101fe848285016101c9565b91505092915050565b600061021282610219565b9050919050565b600073ffffffffffffffffffffffffffffffffffffffff82169050919050565b61024281610207565b811461024d57600080fd5b5056fea26469706673582212203817488252204f3755ffc6c9c0e3c6e2cc7594e7b24d1efb54bf3227ec5a1de064736f6c63430008040033",
  "linkReferences": {},
  "deployedLinkReferences": {}
}