{
  "_format": "hh-sol-artifact-1",
  "contractName": "PureSuperToken",
  "sourceName": "custom-supertokens/contracts/PureSuperToken.sol",
  "abi": [
    {
      "inputs": [],
      "name": "Initialized",
      "type": "error"
    },
    {
      "inputs": [],
      "name": "ZeroAddress",
      "type": "error"
    },
    {
      "stateMutability": "payable",
      "type": "fallback"
    },
    {
      "inputs": [
        {
          "internalType": "address",
          "name": "factory",
          "type": "address"
        },
        {
          "internalType": "string",
          "name": "name",
          "type": "string"
        },
        {
          "internalType": "string",
          "name": "symbol",
          "type": "string"
        },
        {
          "internalType": "address",
          "name": "receiver",
          "type": "address"
        },
        {
          "internalType": "uint256",
          "name": "initialSupply",
          "type": "uint256"
        }
      ],
      "name": "initialize",
      "outputs": [],
      "stateMutability": "nonpayable",
      "type": "function"
    },
    {
      "inputs": [
        {
          "internalType": "address",
          "name": "initialAddress",
          "type": "address"
        }
      ],
      "name": "initializeProxy",
      "outputs": [],
      "stateMutability": "nonpayable",
      "type": "function"
    },
    {
      "stateMutability": "payable",
      "type": "receive"
    }
  ],
  "bytecode": "0x608060405234801561001057600080fd5b50610860806100206000396000f3fe60806040526004361061002d5760003560e01c80634a0687ef1461004657806375b30be61461006f5761003c565b3661003c5761003a610098565b005b610044610098565b005b34801561005257600080fd5b5061006d60048036038101906100689190610412565b6100b2565b005b34801561007b57600080fd5b506100966004803603810190610091919061043b565b6101ac565b005b6100a06101d8565b6100b06100ab6101da565b610203565b565b600073ffffffffffffffffffffffffffffffffffffffff168173ffffffffffffffffffffffffffffffffffffffff161415610119576040517fd92e233d00000000000000000000000000000000000000000000000000000000815260040160405180910390fd5b600073ffffffffffffffffffffffffffffffffffffffff166101396101da565b73ffffffffffffffffffffffffffffffffffffffff1614610186576040517f5daa87a000000000000000000000000000000000000000000000000000000000815260040160405180910390fd5b807f360894a13ba1a3210667c828492db98dca3e2076cc3735a920a3ca505d382bbc5550565b6101b7858585610229565b6101d182826040518060200160405280600081525061030c565b5050505050565b565b60007f360894a13ba1a3210667c828492db98dca3e2076cc3735a920a3ca505d382bbc54905090565b3660008037600080366000845af43d6000803e8060008114610224573d6000f35b3d6000fd5b8273ffffffffffffffffffffffffffffffffffffffff1663d412d344306040518263ffffffff1660e01b81526004016102629190610590565b600060405180830381600087803b15801561027c57600080fd5b505af1158015610290573d6000803e3d6000fd5b505050503073ffffffffffffffffffffffffffffffffffffffff166342fe09806000601285856040518563ffffffff1660e01b81526004016102d594939291906105e9565b600060405180830381600087803b1580156102ef57600080fd5b505af1158015610303573d6000803e3d6000fd5b50505050505050565b3073ffffffffffffffffffffffffffffffffffffffff1663c68d42838484846040518463ffffffff1660e01b8152600401610349939291906105ab565b600060405180830381600087803b15801561036357600080fd5b505af1158015610377573d6000803e3d6000fd5b50505050505050565b600061039361038e84610661565b61063c565b9050828152602081018484840111156103ab57600080fd5b6103b6848285610749565b509392505050565b6000813590506103cd816107fc565b92915050565b600082601f8301126103e457600080fd5b81356103f4848260208601610380565b91505092915050565b60008135905061040c81610813565b92915050565b60006020828403121561042457600080fd5b6000610432848285016103be565b91505092915050565b600080600080600060a0868803121561045357600080fd5b6000610461888289016103be565b955050602086013567ffffffffffffffff81111561047e57600080fd5b61048a888289016103d3565b945050604086013567ffffffffffffffff8111156104a757600080fd5b6104b3888289016103d3565b93505060606104c4888289016103be565b92505060806104d5888289016103fd565b9150509295509295909350565b6104eb816106ca565b82525050565b60006104fc82610692565b61050681856106a8565b9350610516818560208601610758565b61051f816107eb565b840191505092915050565b61053381610713565b82525050565b61054281610737565b82525050565b60006105538261069d565b61055d81856106b9565b935061056d818560208601610758565b610576816107eb565b840191505092915050565b61058a816106fc565b82525050565b60006020820190506105a560008301846104e2565b92915050565b60006060820190506105c060008301866104e2565b6105cd6020830185610581565b81810360408301526105df81846104f1565b9050949350505050565b60006080820190506105fe600083018761052a565b61060b6020830186610539565b818103604083015261061d8185610548565b905081810360608301526106318184610548565b905095945050505050565b6000610646610657565b9050610652828261078b565b919050565b6000604051905090565b600067ffffffffffffffff82111561067c5761067b6107bc565b5b610685826107eb565b9050602081019050919050565b600081519050919050565b600081519050919050565b600082825260208201905092915050565b600082825260208201905092915050565b60006106d5826106dc565b9050919050565b600073ffffffffffffffffffffffffffffffffffffffff82169050919050565b6000819050919050565b600060ff82169050919050565b600061071e82610725565b9050919050565b6000610730826106dc565b9050919050565b600061074282610706565b9050919050565b82818337600083830152505050565b60005b8381101561077657808201518184015260208101905061075b565b83811115610785576000848401525b50505050565b610794826107eb565b810181811067ffffffffffffffff821117156107b3576107b26107bc565b5b80604052505050565b7f4e487b7100000000000000000000000000000000000000000000000000000000600052604160045260246000fd5b6000601f19601f8301169050919050565b610805816106ca565b811461081057600080fd5b50565b61081c816106fc565b811461082757600080fd5b5056fea26469706673582212208ddf0c8e9d00db67c6eaf22c2b1105167b96037449a00c066892cf600493820a64736f6c63430008040033",
  "linkReferences": {},
  "deployedLinkReferences": {}
}