{
  "_format": "hh-sol-artifact-1",
  "contractName": "MyToken",
  "sourceName": "contracts/MyToken.sol",
  "abi": [
    {
      "inputs": [],
      "name": "Initialized",
      "type": "error"
    },
    {
      "inputs": [],
      "name": "ZeroAddress",
      "type": "error"
    },
    {
      "stateMutability": "payable",
      "type": "fallback"
    },
    {
      "inputs": [
        {
          "internalType": "address",
          "name": "factory",
          "type": "address"
        },
        {
          "internalType": "string",
          "name": "name",
          "type": "string"
        },
        {
          "internalType": "string",
          "name": "symbol",
          "type": "string"
        },
        {
          "internalType": "address",
          "name": "receiver",
          "type": "address"
        },
        {
          "internalType": "uint256",
          "name": "initialSupply",
          "type": "uint256"
        }
      ],
      "name": "initialize",
      "outputs": [],
      "stateMutability": "nonpayable",
      "type": "function"
    },
    {
      "inputs": [
        {
          "internalType": "address",
          "name": "factory",
          "type": "address"
        },
        {
          "internalType": "string",
          "name": "name",
          "type": "string"
        },
        {
          "internalType": "string",
          "name": "symbol",
          "type": "string"
        }
      ],
      "name": "initialize",
      "outputs": [],
      "stateMutability": "nonpayable",
      "type": "function"
    },
    {
      "inputs": [
        {
          "internalType": "address",
          "name": "initialAddress",
          "type": "address"
        }
      ],
      "name": "initializeProxy",
      "outputs": [],
      "stateMutability": "nonpayable",
      "type": "function"
    },
    {
      "stateMutability": "payable",
      "type": "receive"
    }
  ],
  "bytecode": "0x608060405234801561001057600080fd5b50610964806100206000396000f3fe6080604052600436106100385760003560e01c80634a0687ef1461005157806375b30be61461007a57806390657147146100a357610047565b36610047576100456100cc565b005b61004f6100cc565b005b34801561005d57600080fd5b5061007860048036038101906100739190610497565b6100e6565b005b34801561008657600080fd5b506100a1600480360381019061009c919061053f565b6101e0565b005b3480156100af57600080fd5b506100ca60048036038101906100c591906104c0565b61020c565b005b6100d461025d565b6100e46100df61025f565b610288565b565b600073ffffffffffffffffffffffffffffffffffffffff168173ffffffffffffffffffffffffffffffffffffffff16141561014d576040517fd92e233d00000000000000000000000000000000000000000000000000000000815260040160405180910390fd5b600073ffffffffffffffffffffffffffffffffffffffff1661016d61025f565b73ffffffffffffffffffffffffffffffffffffffff16146101ba576040517f5daa87a000000000000000000000000000000000000000000000000000000000815260040160405180910390fd5b807f360894a13ba1a3210667c828492db98dca3e2076cc3735a920a3ca505d382bbc5550565b6101eb8585856102ae565b610205828260405180602001604052806000815250610391565b5050505050565b6102178383836102ae565b6102583360006040518060400160405280600881526020017f7573657244617461000000000000000000000000000000000000000000000000815250610391565b505050565b565b60007f360894a13ba1a3210667c828492db98dca3e2076cc3735a920a3ca505d382bbc54905090565b3660008037600080366000845af43d6000803e80600081146102a9573d6000f35b3d6000fd5b8273ffffffffffffffffffffffffffffffffffffffff1663d412d344306040518263ffffffff1660e01b81526004016102e79190610694565b600060405180830381600087803b15801561030157600080fd5b505af1158015610315573d6000803e3d6000fd5b505050503073ffffffffffffffffffffffffffffffffffffffff166342fe09806000601285856040518563ffffffff1660e01b815260040161035a94939291906106ed565b600060405180830381600087803b15801561037457600080fd5b505af1158015610388573d6000803e3d6000fd5b50505050505050565b3073ffffffffffffffffffffffffffffffffffffffff1663c68d42838484846040518463ffffffff1660e01b81526004016103ce939291906106af565b600060405180830381600087803b1580156103e857600080fd5b505af11580156103fc573d6000803e3d6000fd5b50505050505050565b600061041861041384610765565b610740565b90508281526020810184848401111561043057600080fd5b61043b84828561084d565b509392505050565b60008135905061045281610900565b92915050565b600082601f83011261046957600080fd5b8135610479848260208601610405565b91505092915050565b60008135905061049181610917565b92915050565b6000602082840312156104a957600080fd5b60006104b784828501610443565b91505092915050565b6000806000606084860312156104d557600080fd5b60006104e386828701610443565b935050602084013567ffffffffffffffff81111561050057600080fd5b61050c86828701610458565b925050604084013567ffffffffffffffff81111561052957600080fd5b61053586828701610458565b9150509250925092565b600080600080600060a0868803121561055757600080fd5b600061056588828901610443565b955050602086013567ffffffffffffffff81111561058257600080fd5b61058e88828901610458565b945050604086013567ffffffffffffffff8111156105ab57600080fd5b6105b788828901610458565b93505060606105c888828901610443565b92505060806105d988828901610482565b9150509295509295909350565b6105ef816107ce565b82525050565b600061060082610796565b61060a81856107ac565b935061061a81856020860161085c565b610623816108ef565b840191505092915050565b61063781610817565b82525050565b6106468161083b565b82525050565b6000610657826107a1565b61066181856107bd565b935061067181856020860161085c565b61067a816108ef565b840191505092915050565b61068e81610800565b82525050565b60006020820190506106a960008301846105e6565b92915050565b60006060820190506106c460008301866105e6565b6106d16020830185610685565b81810360408301526106e381846105f5565b9050949350505050565b6000608082019050610702600083018761062e565b61070f602083018661063d565b8181036040830152610721818561064c565b90508181036060830152610735818461064c565b905095945050505050565b600061074a61075b565b9050610756828261088f565b919050565b6000604051905090565b600067ffffffffffffffff8211156107805761077f6108c0565b5b610789826108ef565b9050602081019050919050565b600081519050919050565b600081519050919050565b600082825260208201905092915050565b600082825260208201905092915050565b60006107d9826107e0565b9050919050565b600073ffffffffffffffffffffffffffffffffffffffff82169050919050565b6000819050919050565b600060ff82169050919050565b600061082282610829565b9050919050565b6000610834826107e0565b9050919050565b60006108468261080a565b9050919050565b82818337600083830152505050565b60005b8381101561087a57808201518184015260208101905061085f565b83811115610889576000848401525b50505050565b610898826108ef565b810181811067ffffffffffffffff821117156108b7576108b66108c0565b5b80604052505050565b7f4e487b7100000000000000000000000000000000000000000000000000000000600052604160045260246000fd5b6000601f19601f8301169050919050565b610909816107ce565b811461091457600080fd5b50565b61092081610800565b811461092b57600080fd5b5056fea2646970667358221220269867acb96972c2215bd148a0408fc48f4cc1f5bec488c360599e691db9427664736f6c63430008040033",
  "linkReferences": {},
  "deployedLinkReferences": {}
}